:100000000C9434000C9449000C9449000C94490061
:100010000C9449000C9449000C9449000C9449003C
:100020000C9449000C9449000C9449000C9449002C
:100030000C9449000C9449000C9449000C9449001C
:100040000C9449000C9449000C9449000C9449000C
:100050000C9449000C9449000C9449000C944900FC
:100060000C9449000C94490011241FBECFEFD8E036
:10007000DEBFCDBF11E0A0E0B1E0EEE1F1E002C0F3
:1000800005900D92A031B107D9F70E947D000C9424
:100090008D000C9400001092C50087E68093C40088
:1000A000E1ECF0E0808180618083808188608083E2
:1000B00080818083E2ECF0E08081826080838081B7
:1000C0008460808308959091C00095FFFCCF809359
:1000D000C6000895CF93DF93EC018991882319F02E
:1000E0000E946300FACFDF91CF910895259A089579
:1000F0002D9A089585B115B808950E944B0080E0AF
:1001000091E00E946A002FEF83ED90E32150804040
:0E0110009040E1F700C00000F2CFF894FFCF5E
:10011E0068656C6C6F2C20776F726C640D0A000032
:00000001FF
