:100000000C9434000C9449000C9449000C94490061
:100010000C9449000C9449000C9449000C9449003C
:100020000C9449000C9449000C9449000C9449002C
:100030000C9449000C9449000C9449000C9449001C
:100040000C9449000C9449000C9449000C9449000C
:100050000C9449000C9449000C9449000C944900FC
:100060000C9449000C94490011241FBECFEFD8E036
:10007000DEBFCDBF11E0A0E0B1E0E4E9F1E002C0F5
:1000800005900D92A632B107D9F70E949B000C94FF
:10009000C8000C9400001092C50087E68093C4004D
:1000A000E1ECF0E0808180618083808188608083E2
:1000B00080818083E2ECF0E08081826080838081B7
:1000C0008460808308959091C00095FFFCCF809359
:1000D000C6000895CF93DF93EC018991882319F02E
:1000E0000E946300FACFDF91CF9108958091C00004
:1000F00087FFFCCF8091C6000895CF93DF93EC017A
:100100000E9476008A3021F08D3011F08993F8CF6B
:100110001882DF91CF9108958091C00087FF03C0BE
:100120008091C600F9CF0895259A08952D9A0895D3
:1001300085B115B80895CF93DF93CDB7DEB7A097FB
:100140000FB6F894DEBF0FBECDBF0E944B000E94D9
:100150008C0081E091E00E946A00CE0101960E942D
:100160007D0064E171E0CE0101960E94BF00892B01
:1001700019F489E191E0EFCF80E291E0ECCFFB014F
:10018000DC018D91019080190110D9F3990B08952C
:04019000F894FFCF11
:10019400205375636365737366756C6C20696E694F
:1001A400740D0A0070696E6700706F6E670D0A0047
:0601B4004552520D0A0045
:00000001FF
